0130505802442SJ202504M0000130000030
02201741904110000000001SERVILLETERA                                      014019250352095015421903020250430202504303
03201741904110100      14900 000000091864758C      
03201741904110105      00000 000000033734295C      
03201741904110110      02300 000000014180466C      
03201741904110200      00000 000000015375747D      
03201741904110205      00000 000000004193386D      
03201741904110210      00000 000000004193386D      
03201741904110215      00000 000000002795590D      
03201741904110217      00000 000000000610750D      
03201741904110240      00000 000000035000000D      
03201741904119999      00000 000000000000040C      
0420174190411000110101 1 0490080 1 1 01  00  0000000000000000011950000000000000000000000000000000000000000000000000000000000000000000000000000000000000000000000000000000000000000000000000000000000000000000000000000000000000000000000000000000000000000000000000000000000000000000000000000000000000000000000000000000000000000000000000000000000000000000000000000000000000000
02202146357640000000005ADMINISTRACION                                    014019250352095015294703020250430202504303
03202146357640100      15150 000000118443609C      
03202146357640105      00000 000000028915110C      
03202146357640110      02300 000000017981538C      
03202146357640200      00000 000000018187428D      
03202146357640205      00000 000000004960208D      
03202146357640210      00000 000000004960208D      
03202146357640215      00000 000000003306805D      
03202146357640217      00000 000000000610750D      
03202146357640240      00000 000000045000000D      
03202146357649999      00000 000000000000042C      
0420214635764000110101 1 0490080 1 1 01  00  0000000000000000010970700000000000000000000000000000000000000000000000000000000000000000000000000000000000000000000000000000000000000000000000000000000000000000000000000000000000000000000000000000000000000000000000000000000000000000000000000000000000000000000000000000000000000000000000000000000000000000000000000000000000000
02201617950470000000006IMPRESORAS                                        014019250352095103703403020250430202504303
03201617950470100      14900 000000116489094C      
03201617950470105      00000 000000038553480C      
03201617950470110      02300 000000017981538C      
03201617950470140      01900 000000018856949C      
03201617950470200      00000 000000019032652D      
03201617950470205      00000 000000005190723D      
03201617950470210      00000 000000005190723D      
03201617950470215      00000 000000003460482D      
03201617950470217      00000 000000000610750D      
03201617950470240      00000 000000020000000D      
03201617950479999      00000 000000000000069C      
0420161795047000110101 1 0490080 1 1 01  00  0000000000000000010970700000000000000000000000000000000000000000000000000000000000000000000000000000000000000000000000000000000000000000000000000000000000000000000000000000000000000000000000000000000000000000000000000000000000000000000000000000000000000000000000000000000000000000000000000000000000000000000000000000000000000
02272273045750000000008IMPRESORAS                                        014019250352095015278703020250430202504303
03272273045750100      14900 000000079083836C      
03272273045750105      00000 000000028915110C      
03272273045750110      02300 000000012207572C      
03272273045750200      00000 000000013222717D      
03272273045750205      00000 000000003606196D      
03272273045750210      00000 000000003606196D      
03272273045750215      00000 000000002404130D      
03272273045750217      00000 000000000610750D      
03272273045750240      00000 000000010000000D      
03272273045759999      00000 000000000000071C      
0427227304575000110101 1 0490080 1 1 01  00  0000000000000000010970700000000000000000000000000000000000000000000000000000000000000000000000000000000000000000000000000000000000000000000000000000000000000000000000000000000000000000000000000000000000000000000000000000000000000000000000000000000000000000000000000000000000000000000000000000000000000000000000000000000000000
02231406839490000000012IMPRESORAS                                        014019250352095015430103020250430202504303
03231406839490100      11000 000000085998660C      
03231406839490105      00000 000000035661969C      
03231406839490110      02300 000000017981538C      
03231406839490200      00000 000000015360638D      
03231406839490205      00000 000000004189265D      
03231406839490210      00000 000000004189265D      
03231406839490215      00000 000000002792843D      
03231406839490217      00000 000000000610750D      
03231406839499999      00000 000000000000094C      
0423140683949000110101 1 0490080 1 1 01  00  0000000000000000010970700000000000000000000000000000000000000000000000000000000000000000000000000000000000000000000000000000000000000000000000000000000000000000000000000000000000000000000000000000000000000000000000000000000000000000000000000000000000000000000000000000000000000000000000000000000000000000000000000000000000000
02201813578440000000015IMPRESORAS                                        014019250352095015391903020250430202504303
03201813578440100      14900 000000116489094C      
03201813578440105      00000 000000032770458C      
03201813578440110      02300 000000017981538C      
03201813578440200      00000 000000018396520D      
03201813578440205      00000 000000005017233D      
03201813578440210      00000 000000005017233D      
03201813578440215      00000 000000003344822D      
03201813578440217      00000 000000000610750D      
03201813578440240      00000 000000020000000D      
03201813578449999      00000 000000000000068C      
0420181357844000110101 1 0490080 1 1 01  00  0000000000000000010970700000000000000000000000000000000000000000000000000000000000000000000000000000000000000000000000000000000000000000000000000000000000000000000000000000000000000000000000000000000000000000000000000000000000000000000000000000000000000000000000000000000000000000000000000000000000000000000000000000000000000
02201617931330000000019IMPRESORAS                                        014019250352095015405903020250430202504303
03201617931330100      08200 000000050556444C      
03201617931330101      00000 000000021578970C      
03201617931330105      00000 000000038553480C      
03201617931330110      01600 000000009864672C      
03201617931330200      00000 000000013260892D      
03201617931330205      00000 000000003616607D      
03201617931330210      00000 000000003616607D      
03201617931330215      00000 000000002411071D      
03201617931330217      00000 000000000610750D      
03201617931330240      00000 000000033000000D      
03201617931339999      00000 000000000000061C      
0420161793133000110101 1 0490080 1 1 01  00  0000000000000000010970700000000000000000000000000000000000000000000000000000000000000000000000000000000000000000000000000000000000000000000000000000000000000000000000000000000000000000000000000000000000000000000000000000000000000000000000000000000000000000000000000000000000000000000000000000000000000000000000000000000000000
02202518903590000000025SERVILLETERA                                                            03020250430202504301
03202518903590100      14850 000000091556487C      
03202518903590105      00000 000000024095925C      
03202518903590110      02300 000000014180466C      
03202518903590200      00000 000000014281617D      
03202518903590205      00000 000000003894986D      
03202518903590210      00000 000000003894986D      
03202518903590215      00000 000000002596658D      
03202518903590217      00000 000000000610750D      
03202518903590240      00000 000000025000000D      
03202518903599999      00000 000000000000019C      
0420251890359000110101 1 0490080 1 1 01  00  0000000000000000012720800000000000000000000000000000000000000000000000000000000000000000000000000000000000000000000000000000000000000000000000000000000000000000000000000000000000000000000000000000000000000000000000000000000000000000000000000000000000000000000000000000000000000000000000000000000000000000000000000000000000000
02202908402960000000029SERVILLETERA                                      017012854000000321977903020250430202504303
03202908402960100      12600 000000077684292C      
03202908402960105      00000 000000021204414C      
03202908402960110      01500 000000009248130C      
03202908402960115      03100 000000019112802C      
03202908402960200      00000 000000013997460D      
03202908402960205      00000 000000003817489D      
03202908402960210      00000 000000003817489D      
03202908402960215      00000 000000002544993D      
03202908402960217      00000 000000000610750D      
03202908402960221      00000 000000028875000D      
03202908402960240      00000 000000020000000D      
03202908402969999      00000 000000000000043C      
0420290840296000110101 1 0490080 1 1 01  00  0000000000000000010970700000000000000000000000000000000000000000000000000000000000000000000000000000000000000000000000000000000000000000000000000000000000000000000000000000000000000000000000000000000000000000000000000000000000000000000000000000000000000000000000000000000000000000000000000000000000000000000000000000000000000
02272770248160000000031IMPRESORAS                                        014019250352095015510603020250430202504303
03272770248160100      14900 000000079083836C      
03272770248160105      00000 000000020240577C      
03272770248160110      02300 000000012207572C      
03272770248160200      00000 000000012268518D      
03272770248160205      00000 000000003345960D      
03272770248160210      00000 000000003345960D      
03272770248160215      00000 000000002230640D      
03272770248160217      00000 000000000610750D      
03272770248160240      00000 000000025000000D      
03272770248169999      00000 000000000000043C      
0427277024816000110101 1 0490080 1 1 01  00  0000000000000000010970700000000000000000000000000000000000000000000000000000000000000000000000000000000000000000000000000000000000000000000000000000000000000000000000000000000000000000000000000000000000000000000000000000000000000000000000000000000000000000000000000000000000000000000000000000000000000000000000000000000000000
02203098751340000000032IMPRESORAS                                        014019250352095015316203020250430202504303
03203098751340100      14900 000000079083836C      
03203098751340105      00000 000000020240577C      
03203098751340110      02300 000000012207572C      
03203098751340140      01900 000000018856949C      
03203098751340200      00000 000000012268518D      
03203098751340205      00000 000000003345960D      
03203098751340210      00000 000000003345960D      
03203098751340215      00000 000000002230640D      
03203098751340217      00000 000000000610750D      
03203098751340240      00000 000000010000000D      
03203098751349999      00000 000000000000094C      
0420309875134000110101 1 0490080 1 1 01  00  0000000000000000010970700000000000000000000000000000000000000000000000000000000000000000000000000000000000000000000000000000000000000000000000000000000000000000000000000000000000000000000000000000000000000000000000000000000000000000000000000000000000000000000000000000000000000000000000000000000000000000000000000000000000000
02201833358210000000033IMPRESORAS                                        014019250352095015413403020250430202504303
03201833358210100      12400 000000065814736C      
03201833358210105      00000 000000020240577C      
03201833358210110      02300 000000012207572C      
03201833358210140      01500 000000014887065C      
03201833358210200      00000 000000010808917D      
03201833358210205      00000 000000002947887D      
03201833358210210      00000 000000002947887D      
03201833358210215      00000 000000001965258D      
03201833358210217      00000 000000000610750D      
03201833358219999      00000 000000000000049C      
0420183335821000110101 1 0490080 1 1 01  00  0000000000000000010970700000000000000000000000000000000000000000000000000000000000000000000000000000000000000000000000000000000000000000000000000000000000000000000000000000000000000000000000000000000000000000000000000000000000000000000000000000000000000000000000000000000000000000000000000000000000000000000000000000000000000
02202442178190000000034IMPRESORAS                                        014019250352095015480603020250430202504303
03202442178190100      14100 000000080291040C      
03202442178190105      00000 000000018312903C      
03202442178190110      02300 000000013097120C      
03202442178190115      00800 000000004555520C      
03202442178190200      00000 000000012788224D      
03202442178190205      00000 000000003487697D      
03202442178190210      00000 000000003487697D      
03202442178190215      00000 000000002325132D      
03202442178190217      00000 000000000610750D      
03202442178190240      00000 000000035000000D      
03202442178199999      00000 000000000000017C      
0420244217819000110101 1 0490080 1 1 01  00  0000000000000000010970700000000000000000000000000000000000000000000000000000000000000000000000000000000000000000000000000000000000000000000000000000000000000000000000000000000000000000000000000000000000000000000000000000000000000000000000000000000000000000000000000000000000000000000000000000000000000000000000000000000000000
02203174380290000000037IMPRESORAS                                        014019250352095016649003020250430202504303
03203174380290100      14900 000000091864758C      
03203174380290105      00000 000000015421392C      
03203174380290110      02300 000000014180466C      
03203174380290200      00000 000000013361328D      
03203174380290205      00000 000000003643998D      
03203174380290210      00000 000000003643998D      
03203174380290215      00000 000000002429332D      
03203174380290217      00000 000000000610750D      
03203174380299999      00000 000000000000090C      
0420317438029000110101 1 0490080 1 1 01  00  0000000000000000011530000000000000000000000000000000000000000000000000000000000000000000000000000000000000000000000000000000000000000000000000000000000000000000000000000000000000000000000000000000000000000000000000000000000000000000000000000000000000000000000000000000000000000000000000000000000000000000000000000000000000000
02203046462850000000041IMPRESORAS                                        017012854000000321892903020250430202504303
03203046462850100      11650 000000071827143C      
03203046462850105      00000 000000014457555C      
03203046462850110      01600 000000009864672C      
03203046462850200      00000 000000010576431D      
03203046462850205      00000 000000002884481D      
03203046462850210      00000 000000002884481D      
03203046462850215      00000 000000001922987D      
03203046462850217      00000 000000000610750D      
03203046462859999      00000 000000000000060C      
0420304646285000110101 1 0490080 1 1 01  00  0000000000000000010970700000000000000000000000000000000000000000000000000000000000000000000000000000000000000000000000000000000000000000000000000000000000000000000000000000000000000000000000000000000000000000000000000000000000000000000000000000000000000000000000000000000000000000000000000000000000000000000000000000000000000
02209411041270000000048IMPRESORAS                                        014019250352095037760303020250430202504303
03209411041270100      20750 000000110133530C      
03209411041270105      00000 000000013493718C      
03209411041270110      02400 000000012738336C      
03209411041270200      00000 000000015000214D      
03209411041270205      00000 000000004090968D      
03209411041270210      00000 000000004090968D      
03209411041270215      00000 000000002727312D      
03209411041270217      00000 000000000610750D      
03209411041279999      00000 000000000000028C      
0420941104127000110101 1 0490080 1 1 01  00  0000000000000000010970700000000000000000000000000000000000000000000000000000000000000000000000000000000000000000000000000000000000000000000000000000000000000000000000000000000000000000000000000000000000000000000000000000000000000000000000000000000000000000000000000000000000000000000000000000000000000000000000000000000000000
02233481814590000000055IMPRESORAS                                        017012854000000372548303020250430202504303
03233481814590100      14100 000000086932422C      
03233481814590105      00000 000000010602207C      
03233481814590110      02300 000000014180466C      
03233481814590115      00800 000000004932336C      
03233481814590200      00000 000000012831217D      
03233481814590205      00000 000000003499423D      
03233481814590210      00000 000000003499423D      
03233481814590215      00000 000000002332949D      
03233481814590217      00000 000000000610750D      
03233481814590240      00000 000000015000000D      
03233481814599999      00000 000000000000031C      
0423348181459000110101 1 0490080 1 1 01  00  0000000000000000010970700000000000000000000000000000000000000000000000000000000000000000000000000000000000000000000000000000000000000000000000000000000000000000000000000000000000000000000000000000000000000000000000000000000000000000000000000000000000000000000000000000000000000000000000000000000000000000000000000000000000000
02204066303910000000058IMPRESORAS                                        017012854000000372555103020250430202504303
03204066303910100      11750 000000062364770C      
03204066303910105      00000 000000009638370C      
03204066303910110      02300 000000012207572C      
03204066303910200      00000 000000009263178D      
03204066303910205      00000 000000002526321D      
03204066303910210      00000 000000002526321D      
03204066303910215      00000 000000001684214D      
03204066303910217      00000 000000000610750D      
03204066303910240      00000 000000040540000D      
03204066303919999      00000 000000000000072C      
0420406630391000110101 1 0490080 1 1 01  00  0000000000000000010970700000000000000000000000000000000000000000000000000000000000000000000000000000000000000000000000000000000000000000000000000000000000000000000000000000000000000000000000000000000000000000000000000000000000000000000000000000000000000000000000000000000000000000000000000000000000000000000000000000000000000
02202288479690000000062IMPRESORAS                                        017012854000000321809703020250430202504303
03202288479690100      14900 000000084846560C      
03202288479690105      00000 000000008674533C      
03202288479690110      02300 000000013097120C      
03202288479690140      01900 000000018856949C      
03202288479690200      00000 000000011728003D      
03202288479690205      00000 000000003198546D      
03202288479690210      00000 000000003198546D      
03202288479690215      00000 000000002132364D      
03202288479690217      00000 000000000610750D      
03202288479690240      00000 000000030000000D      
03202288479699999      00000 000000000000047C      
0420228847969000110101 1 0490080 1 1 01  00  0000000000000000010970700000000000000000000000000000000000000000000000000000000000000000000000000000000000000000000000000000000000000000000000000000000000000000000000000000000000000000000000000000000000000000000000000000000000000000000000000000000000000000000000000000000000000000000000000000000000000000000000000000000000000
02201617945710000000063IMPRESORAS                                        014019250352095093350003020250430202504303
03201617945710100      14900 000000116489094C      
03201617945710105      00000 000000007710696C      
03201617945710110      02300 000000017981538C      
03201617945710200      00000 000000015639946D      
03201617945710205      00000 000000004265440D      
03201617945710210      00000 000000004265440D      
03201617945710215      00000 000000002843627D      
03201617945710217      00000 000000000610750D      
03201617945710240      00000 000000030000000D      
03201617945719999      00000 000000000000075C      
0420161794571000110101 1 0490080 1 1 01  00  0000000000000000011530000000000000000000000000000000000000000000000000000000000000000000000000000000000000000000000000000000000000000000000000000000000000000000000000000000000000000000000000000000000000000000000000000000000000000000000000000000000000000000000000000000000000000000000000000000000000000000000000000000000000000
02201479640490000000064IMPRESORAS                                        014019250352095103703403020250430202504303
03201479640490100      14900 000000098914991C      
03201479640490105      00000 000000007710696C      
03201479640490110      02300 000000015268757C      
03201479640490140      01200 000000011909652C      
03201479640490200      00000 000000013408389D      
03201479640490205      00000 000000003656833D      
03201479640490210      00000 000000003656833D      
03201479640490215      00000 000000002437889D      
03201479640490217      00000 000000000610750D      
03201479640490240      00000 000000025000000D      
03201479640499999      00000 000000000000098C      
0420147964049000110101 1 0490080 1 1 01  00  0000000000000000010970700000000000000000000000000000000000000000000000000000000000000000000000000000000000000000000000000000000000000000000000000000000000000000000000000000000000000000000000000000000000000000000000000000000000000000000000000000000000000000000000000000000000000000000000000000000000000000000000000000000000000
02203535198250000000065IMPRESORAS                                        014019250352095117097303020250430202504303
03203535198250100      14900 000000079083836C      
03203535198250105      00000 000000006746859C      
03203535198250110      02300 000000012207572C      
03203535198250140      00900 000000008932239C      
03203535198250200      00000 000000010784209D      
03203535198250205      00000 000000002941148D      
03203535198250210      00000 000000002941148D      
03203535198250215      00000 000000001960765D      
03203535198250217      00000 000000000610750D      
03203535198250240      00000 000000025000000D      
03203535198259999      00000 000000000000014C      
0420353519825000110101 1 0490080 1 1 01  00  0000000000000000010970700000000000000000000000000000000000000000000000000000000000000000000000000000000000000000000000000000000000000000000000000000000000000000000000000000000000000000000000000000000000000000000000000000000000000000000000000000000000000000000000000000000000000000000000000000000000000000000000000000000000000
02202595262650000000066ADMINISTRACION                                                          03020250430202504301
03202595262650050      00000 000000270000000C      
0420259526265000010101 1 0490990 1 1 01  00  0000000000000000010970700000000000000000000000000000000000000000000000000000000000000000000000000000000000000000000000000000000000000000000000000000000000000000000000000000000000000000000000000000000000000000000000000000000000000000000000000000000000000000000000000000000000000000000000000000000000000000000000000000000000000
02202699532500000000067ADMINISTRACION                                                          00020250430202504301
03202699532500049      00000 000000300000000C      
0420269953250000000101 1 0490990 1 1 01  00  0000000000000000010970700000000000000000000000000000000000000000000000000000000000000000000000000000000000000000000000000000000000000000000000000000000000000000000000000000000000000000000000000000000000000000000000000000000000000000000000000000000000000000000000000000000000000000000000000000000000000000000000000000000000000
02204071578000000000068IMPRESORAS                                        017036184000003623592803020250430202504303
03204071578000100      08700 000000046176468C      
03204071578000105      00000 000000003855348C      
03204071578000110      02300 000000012207572C      
03204071578000115      02300 000000012207572C      
03204071578000200      00000 000000008189166D      
03204071578000205      00000 000000002233409D      
03204071578000210      00000 000000002233409D      
03204071578000215      00000 000000001488939D      
03204071578000217      00000 000000000610750D      
03204071578000240      00000 000000043000000D      
03204071578009999      00000 000000000000013C      
0420407157800000110101 1 0490080 1 1 01  00  0000000000000000010970700000000000000000000000000000000000000000000000000000000000000000000000000000000000000000000000000000000000000000000000000000000000000000000000000000000000000000000000000000000000000000000000000000000000000000000000000000000000000000000000000000000000000000000000000000000000000000000000000000000000000
02203673473930000000069IMPRESORAS                                        017009304000003445352403020250430202504303
03203673473930100      14900 000000079083836C      
03203673473930105      00000 000000003855348C      
03203673473930110      02300 000000012207572C      
03203673473930200      00000 000000010466143D      
03203673473930205      00000 000000002854403D      
03203673473930210      00000 000000002854403D      
03203673473930215      00000 000000001902935D      
03203673473930217      00000 000000000610750D      
03203673473930240      00000 000000025000000D      
03203673473939999      00000 000000000000078C      
0420367347393000110101 1 0490080 1 1 01  00  0000000000000000010970700000000000000000000000000000000000000000000000000000000000000000000000000000000000000000000000000000000000000000000000000000000000000000000000000000000000000000000000000000000000000000000000000000000000000000000000000000000000000000000000000000000000000000000000000000000000000000000000000000000000000
02202517011490000000070ADMINISTRACION                                    011003033000302616224703020250430202504303
03202517011490100      07450 000000058244547C      
03202517011490105      00000 000000006746859C      
03202517011490110      01150 000000008990769C      
03202517011490200      00000 000000008138039D      
03202517011490205      00000 000000002219465D      
03202517011490210      00000 000000002219465D      
03202517011490215      00000 000000001479644D      
03202517011490217      00000 000000000610750D      
03202517011499999      00000 000000000000088C      
0420251701149000110101 1 0490010 1 1 01  00  0000000000000000010970700000000000000000000000000000000000000000000000000000000000000000000000000000000000000000000000000000000000000000000000000000000000000000000000000000000000000000000000000000000000000000000000000000000000000000000000000000000000000000000000000000000000000000000000000000000000000000000000000000000000000
02202274221660000000071IMPRESORAS                                                              03020250430202504301
03202274221660100      14900 000000079083836C      
03202274221660105      00000 000000002891511C      
03202274221660110      02300 000000012207572C      
03202274221660200      00000 000000010360121D      
03202274221660205      00000 000000002825488D      
03202274221660210      00000 000000002825488D      
03202274221660215      00000 000000001883658D      
03202274221660217      00000 000000000610750D      
03202274221660240      00000 000000015000000D      
03202274221669999      00000 000000000000086C      
0420227422166000110101 1 0490080 1 1 01  00  0000000000000000010970700000000000000000000000000000000000000000000000000000000000000000000000000000000000000000000000000000000000000000000000000000000000000000000000000000000000000000000000000000000000000000000000000000000000000000000000000000000000000000000000000000000000000000000000000000000000000000000000000000000000000
02202958247280000000075IMPRESORAS                                                              03020250430202504301
03202958247280100      14900 000000084846560C      
03202958247280105      00000 000000001927674C      
03202958247280110      02300 000000013097120C      
03202958247280200      00000 000000010985849D      
03202958247280205      00000 000000002996141D      
03202958247280210      00000 000000002996141D      
03202958247280215      00000 000000001997427D      
03202958247280217      00000 000000000610750D      
03202958247280240      00000 000000025000000D      
03202958247289999      00000 000000000000054C      
0420295824728000110101 1 0490080 1 1 01  00  0000000000000000010970700000000000000000000000000000000000000000000000000000000000000000000000000000000000000000000000000000000000000000000000000000000000000000000000000000000000000000000000000000000000000000000000000000000000000000000000000000000000000000000000000000000000000000000000000000000000000000000000000000000000000
02202574848160000000076ADMINISTRACION                                                          03020250430202504301
03202574848160100      14900 000000079083836C      
03202574848160110      02300 000000012207572C      
03202574848160200      00000 000000010042055D      
03202574848160205      00000 000000002738742D      
03202574848160210      00000 000000002738742D      
03202574848160215      00000 000000001825828D      
03202574848160240      00000 000000015000000D      
03202574848169999      00000 000000000000059C      
0420257484816000010101 1 0490990 1 1 01  00  0000000000000000010970700000000000000000000000000000000000000000000000000000000000000000000000000000000000000000000000000000000000000000000000000000000000000000000000000000000000000000000000000000000000000000000000000000000000000000000000000000000000000000000000000000000000000000000000000000000000000000000000000000000000000